{
  "_format": "hh3-artifact-1",
  "contractName": "LineFutures",
  "sourceName": "contracts/LineFutures.sol",
  "abi": [
    {
      "inputs": [
        {
          "internalType": "address",
          "name": "_pnlServer",
          "type": "address"
        },
        {
          "internalType": "address",
          "name": "_priceOracle",
          "type": "address"
        }
      ],
      "stateMutability": "nonpayable",
      "type": "constructor"
    },
    {
      "anonymous": false,
      "inputs": [],
      "name": "ContractPaused",
      "type": "event"
    },
    {
      "anonymous": false,
      "inputs": [],
      "name": "ContractUnpaused",
      "type": "event"
    },
    {
      "anonymous": false,
      "inputs": [
        {
          "indexed": false,
          "internalType": "uint256",
          "name": "oldFee",
          "type": "uint256"
        },
        {
          "indexed": false,
          "internalType": "uint256",
          "name": "newFee",
          "type": "uint256"
        }
      ],
      "name": "FeePercentageUpdated",
      "type": "event"
    },
    {
      "anonymous": false,
      "inputs": [
        {
          "indexed": true,
          "internalType": "address",
          "name": "owner",
          "type": "address"
        },
        {
          "indexed": false,
          "internalType": "uint256",
          "name": "amount",
          "type": "uint256"
        },
        {
          "indexed": false,
          "internalType": "uint256",
          "name": "timestamp",
          "type": "uint256"
        }
      ],
      "name": "FeesWithdrawn",
      "type": "event"
    },
    {
      "anonymous": false,
      "inputs": [
        {
          "indexed": true,
          "internalType": "address",
          "name": "oldServer",
          "type": "address"
        },
        {
          "indexed": true,
          "internalType": "address",
          "name": "newServer",
          "type": "address"
        }
      ],
      "name": "PnLServerUpdated",
      "type": "event"
    },
    {
      "anonymous": false,
      "inputs": [
        {
          "indexed": true,
          "internalType": "uint256",
          "name": "positionId",
          "type": "uint256"
        },
        {
          "indexed": true,
          "internalType": "address",
          "name": "user",
          "type": "address"
        },
        {
          "indexed": false,
          "internalType": "int256",
          "name": "pnl",
          "type": "int256"
        },
        {
          "indexed": false,
          "internalType": "uint256",
          "name": "finalAmount",
          "type": "uint256"
        },
        {
          "indexed": false,
          "internalType": "string",
          "name": "actualPriceCommitmentId",
          "type": "string"
        },
        {
          "indexed": false,
          "internalType": "uint256",
          "name": "timestamp",
          "type": "uint256"
        }
      ],
      "name": "PositionClosed",
      "type": "event"
    },
    {
      "anonymous": false,
      "inputs": [
        {
          "indexed": true,
          "internalType": "uint256",
          "name": "positionId",
          "type": "uint256"
        },
        {
          "indexed": true,
          "internalType": "address",
          "name": "user",
          "type": "address"
        },
        {
          "indexed": false,
          "internalType": "uint256",
          "name": "amount",
          "type": "uint256"
        },
        {
          "indexed": false,
          "internalType": "uint16",
          "name": "leverage",
          "type": "uint16"
        },
        {
          "indexed": false,
          "internalType": "uint256",
          "name": "timestamp",
          "type": "uint256"
        },
        {
          "indexed": false,
          "internalType": "string",
          "name": "predictionCommitmentId",
          "type": "string"
        }
      ],
      "name": "PositionOpened",
      "type": "event"
    },
    {
      "inputs": [],
      "name": "MAX_LEVERAGE",
      "outputs": [
        {
          "internalType": "uint16",
          "name": "",
          "type": "uint16"
        }
      ],
      "stateMutability": "view",
      "type": "function"
    },
    {
      "inputs": [],
      "name": "MIN_AMOUNT",
      "outputs": [
        {
          "internalType": "uint256",
          "name": "",
          "type": "uint256"
        }
      ],
      "stateMutability": "view",
      "type": "function"
    },
    {
      "inputs": [],
      "name": "POSITION_DURATION",
      "outputs": [
        {
          "internalType": "uint256",
          "name": "",
          "type": "uint256"
        }
      ],
      "stateMutability": "view",
      "type": "function"
    },
    {
      "inputs": [
        {
          "internalType": "uint16",
          "name": "_leverage",
          "type": "uint16"
        },
        {
          "internalType": "string[]",
          "name": "_predictionCommitmentIds",
          "type": "string[]"
        }
      ],
      "name": "batchOpenPositions",
      "outputs": [
        {
          "internalType": "uint256[]",
          "name": "positionIds",
          "type": "uint256[]"
        }
      ],
      "stateMutability": "payable",
      "type": "function"
    },
    {
      "inputs": [
        {
          "internalType": "uint256",
          "name": "_positionId",
          "type": "uint256"
        }
      ],
      "name": "canClosePosition",
      "outputs": [
        {
          "internalType": "bool",
          "name": "",
          "type": "bool"
        }
      ],
      "stateMutability": "view",
      "type": "function"
    },
    {
      "inputs": [
        {
          "internalType": "uint256",
          "name": "_positionId",
          "type": "uint256"
        },
        {
          "internalType": "int256",
          "name": "_pnl",
          "type": "int256"
        },
        {
          "internalType": "string",
          "name": "_actualPriceCommitmentId",
          "type": "string"
        }
      ],
      "name": "closePosition",
      "outputs": [],
      "stateMutability": "nonpayable",
      "type": "function"
    },
    {
      "inputs": [],
      "name": "collectedFees",
      "outputs": [
        {
          "internalType": "uint256",
          "name": "",
          "type": "uint256"
        }
      ],
      "stateMutability": "view",
      "type": "function"
    },
    {
      "inputs": [],
      "name": "emergencyWithdraw",
      "outputs": [],
      "stateMutability": "nonpayable",
      "type": "function"
    },
    {
      "inputs": [],
      "name": "feePercentage",
      "outputs": [
        {
          "internalType": "uint256",
          "name": "",
          "type": "uint256"
        }
      ],
      "stateMutability": "view",
      "type": "function"
    },
    {
      "inputs": [],
      "name": "getContractBalance",
      "outputs": [
        {
          "internalType": "uint256",
          "name": "",
          "type": "uint256"
        }
      ],
      "stateMutability": "view",
      "type": "function"
    },
    {
      "inputs": [
        {
          "internalType": "uint256",
          "name": "_positionId",
          "type": "uint256"
        }
      ],
      "name": "getPosition",
      "outputs": [
        {
          "components": [
            {
              "internalType": "address",
              "name": "user",
              "type": "address"
            },
            {
              "internalType": "uint256",
              "name": "amount",
              "type": "uint256"
            },
            {
              "internalType": "uint16",
              "name": "leverage",
              "type": "uint16"
            },
            {
              "internalType": "uint256",
              "name": "openTimestamp",
              "type": "uint256"
            },
            {
              "internalType": "string",
              "name": "predictionCommitmentId",
              "type": "string"
            },
            {
              "internalType": "bool",
              "name": "isOpen",
              "type": "bool"
            },
            {
              "internalType": "int256",
              "name": "pnl",
              "type": "int256"
            },
            {
              "internalType": "string",
              "name": "actualPriceCommitmentId",
              "type": "string"
            },
            {
              "internalType": "uint256",
              "name": "closeTimestamp",
              "type": "uint256"
            }
          ],
          "internalType": "struct LineFutures.Position",
          "name": "",
          "type": "tuple"
        }
      ],
      "stateMutability": "view",
      "type": "function"
    },
    {
      "inputs": [
        {
          "internalType": "address",
          "name": "_user",
          "type": "address"
        }
      ],
      "name": "getUserPositions",
      "outputs": [
        {
          "internalType": "uint256[]",
          "name": "",
          "type": "uint256[]"
        }
      ],
      "stateMutability": "view",
      "type": "function"
    },
    {
      "inputs": [
        {
          "internalType": "address",
          "name": "_user",
          "type": "address"
        }
      ],
      "name": "getUserStats",
      "outputs": [
        {
          "internalType": "uint256",
          "name": "totalPositions",
          "type": "uint256"
        },
        {
          "internalType": "uint256",
          "name": "openPositions",
          "type": "uint256"
        },
        {
          "internalType": "uint256",
          "name": "closedPositions",
          "type": "uint256"
        },
        {
          "internalType": "int256",
          "name": "totalPnl",
          "type": "int256"
        }
      ],
      "stateMutability": "view",
      "type": "function"
    },
    {
      "inputs": [
        {
          "internalType": "uint16",
          "name": "_leverage",
          "type": "uint16"
        },
        {
          "internalType": "string",
          "name": "_predictionCommitmentId",
          "type": "string"
        }
      ],
      "name": "openPosition",
      "outputs": [
        {
          "internalType": "uint256",
          "name": "positionId",
          "type": "uint256"
        }
      ],
      "stateMutability": "payable",
      "type": "function"
    },
    {
      "inputs": [],
      "name": "owner",
      "outputs": [
        {
          "internalType": "address",
          "name": "",
          "type": "address"
        }
      ],
      "stateMutability": "view",
      "type": "function"
    },
    {
      "inputs": [],
      "name": "pause",
      "outputs": [],
      "stateMutability": "nonpayable",
      "type": "function"
    },
    {
      "inputs": [],
      "name": "paused",
      "outputs": [
        {
          "internalType": "bool",
          "name": "",
          "type": "bool"
        }
      ],
      "stateMutability": "view",
      "type": "function"
    },
    {
      "inputs": [],
      "name": "pnlServer",
      "outputs": [
        {
          "internalType": "address",
          "name": "",
          "type": "address"
        }
      ],
      "stateMutability": "view",
      "type": "function"
    },
    {
      "inputs": [],
      "name": "positionCounter",
      "outputs": [
        {
          "internalType": "uint256",
          "name": "",
          "type": "uint256"
        }
      ],
      "stateMutability": "view",
      "type": "function"
    },
    {
      "inputs": [
        {
          "internalType": "uint256",
          "name": "",
          "type": "uint256"
        }
      ],
      "name": "positions",
      "outputs": [
        {
          "internalType": "address",
          "name": "user",
          "type": "address"
        },
        {
          "internalType": "uint256",
          "name": "amount",
          "type": "uint256"
        },
        {
          "internalType": "uint16",
          "name": "leverage",
          "type": "uint16"
        },
        {
          "internalType": "uint256",
          "name": "openTimestamp",
          "type": "uint256"
        },
        {
          "internalType": "string",
          "name": "predictionCommitmentId",
          "type": "string"
        },
        {
          "internalType": "bool",
          "name": "isOpen",
          "type": "bool"
        },
        {
          "internalType": "int256",
          "name": "pnl",
          "type": "int256"
        },
        {
          "internalType": "string",
          "name": "actualPriceCommitmentId",
          "type": "string"
        },
        {
          "internalType": "uint256",
          "name": "closeTimestamp",
          "type": "uint256"
        }
      ],
      "stateMutability": "view",
      "type": "function"
    },
    {
      "inputs": [],
      "name": "priceOracle",
      "outputs": [
        {
          "internalType": "address",
          "name": "",
          "type": "address"
        }
      ],
      "stateMutability": "view",
      "type": "function"
    },
    {
      "inputs": [
        {
          "internalType": "uint256",
          "name": "_feePercentage",
          "type": "uint256"
        }
      ],
      "name": "setFeePercentage",
      "outputs": [],
      "stateMutability": "nonpayable",
      "type": "function"
    },
    {
      "inputs": [
        {
          "internalType": "address",
          "name": "_server",
          "type": "address"
        }
      ],
      "name": "setPnLServer",
      "outputs": [],
      "stateMutability": "nonpayable",
      "type": "function"
    },
    {
      "inputs": [],
      "name": "unpause",
      "outputs": [],
      "stateMutability": "nonpayable",
      "type": "function"
    },
    {
      "inputs": [
        {
          "internalType": "address",
          "name": "",
          "type": "address"
        },
        {
          "internalType": "uint256",
          "name": "",
          "type": "uint256"
        }
      ],
      "name": "userPositions",
      "outputs": [
        {
          "internalType": "uint256",
          "name": "",
          "type": "uint256"
        }
      ],
      "stateMutability": "view",
      "type": "function"
    },
    {
      "inputs": [
        {
          "internalType": "uint256",
          "name": "_amount",
          "type": "uint256"
        }
      ],
      "name": "withdrawFees",
      "outputs": [],
      "stateMutability": "nonpayable",
      "type": "function"
    }
  ],
  "bytecode": "0x608060405260c8600655348015610014575f5ffd5b506040516123f03803806123f083398101604081905261003391610198565b6001600160a01b03821661009e5760405162461bcd60e51b815260206004820152602760248201527f4c696e65467574757265733a20506e4c20736572766572206973207a65726f206044820152666164647265737360c81b60648201526084015b60405180910390fd5b6001600160a01b0381166101005760405162461bcd60e51b815260206004820152602360248201527f4c696e65467574757265733a206f7261636c65206973207a65726f206164647260448201526265737360e81b6064820152608401610095565b600380546001600160a01b03199081163317909155600480546001600160a01b038581169190931681179091556007805492841661010002610100600160a81b0319909316929092179091556040515f907ffb23c8edbee010b67ad49847eeb17d919a910d8a8cd91853911119bdeedd07d5908290a350506101c9565b80516001600160a01b0381168114610193575f5ffd5b919050565b5f5f604083850312156101a9575f5ffd5b6101b28361017d565b91506101c06020840161017d565b90509250929050565b61221a806101d65f395ff3fe60806040526004361061017b575f3560e01c80638da5cb5b116100cd578063b679e34e11610087578063cf57dcef11610062578063cf57dcef14610458578063db2e21bc1461046b578063ddbcb5fa1461047f578063eb02c3011461049a575f5ffd5b8063b679e34e14610407578063b72c64e51461041a578063bc4293b814610439575f5ffd5b80638da5cb5b146103435780639003adfe1461036257806399fbab88146103775780639b45ec97146103ab578063a001ecdd146103d3578063ae06c1b7146103e8575f5ffd5b80635c975abb1161013857806363d5ab8d1161011357806363d5ab8d146102f45780636f9fb98a146103095780638456cb591461031b57806389b0ecfb1461032f575f5ffd5b80635c975abb1461028f5780635e1b4d99146102a85780635e318e07146102d5575f5ffd5b806311e2afa91461017f5780632630c12f146101b35780632a6bc2dd146101ef5780633d4714d21461021b5780633f4ba83a1461023a5780634e43603a14610250575b5f5ffd5b34801561018a575f5ffd5b5061019e610199366004611a43565b6104c6565b60405190151581526020015b60405180910390f35b3480156101be575f5ffd5b506007546101d79061010090046001600160a01b031681565b6040516001600160a01b0390911681526020016101aa565b3480156101fa575f5ffd5b5061020e610209366004611a75565b61050f565b6040516101aa9190611a8e565b348015610226575f5ffd5b506004546101d7906001600160a01b031681565b348015610245575f5ffd5b5061024e610578565b005b34801561025b575f5ffd5b5061026f61026a366004611a75565b6105df565b6040805194855260208501939093529183015260608201526080016101aa565b34801561029a575f5ffd5b5060075461019e9060ff1681565b3480156102b3575f5ffd5b506102c76102c2366004611ad0565b6106ed565b6040519081526020016101aa565b3480156102e0575f5ffd5b5061024e6102ef366004611a43565b610718565b3480156102ff575f5ffd5b506102c760025481565b348015610314575f5ffd5b50476102c7565b348015610326575f5ffd5b5061024e610895565b34801561033a575f5ffd5b506102c7603c81565b34801561034e575f5ffd5b506003546101d7906001600160a01b031681565b34801561036d575f5ffd5b506102c760055481565b348015610382575f5ffd5b50610396610391366004611a43565b6108f6565b6040516101aa99989796959493929190611b26565b3480156103b6575f5ffd5b506103c06109c481565b60405161ffff90911681526020016101aa565b3480156103de575f5ffd5b506102c760065481565b3480156103f3575f5ffd5b5061024e610402366004611a43565b610a61565b6102c7610415366004611c58565b610b22565b348015610425575f5ffd5b5061024e610434366004611a75565b610de5565b348015610444575f5ffd5b5061024e610453366004611ca3565b610ec6565b61020e610466366004611cef565b6111d8565b348015610476575f5ffd5b5061024e611747565b34801561048a575f5ffd5b506102c7678ac7230489e8000081565b3480156104a5575f5ffd5b506104b96104b4366004611a43565b61182a565b6040516101aa9190611dce565b5f60025482106104d757505f919050565b5f828152602081905260409020600581015460ff1680156105085750603c81600301546105049190611e97565b4210155b9392505050565b6001600160a01b0381165f9081526001602090815260409182902080548351818402810184019094528084526060939283018282801561056c57602002820191905f5260205f20905b815481526020019060010190808311610558575b50505050509050919050565b6003546001600160a01b031633146105ab5760405162461bcd60e51b81526004016105a290611eaa565b60405180910390fd5b6007805460ff191690556040517f0e5e3b3fb504c22cf5c42fa07d521225937514c654007e1f12646f89768d6f94905f90a1565b5f5f5f5f5f60015f876001600160a01b03166001600160a01b031681526020019081526020015f2080548060200260200160405190810160405280929190818152602001828054801561064f57602002820191905f5260205f20905b81548152602001906001019080831161063b575b5050835198509293505f925050505b81518110156106e4575f5f5f84848151811061067c5761067c611eee565b602002602001015181526020019081526020015f209050806005015f9054906101000a900460ff16156106bb57856106b381611f02565b9650506106db565b846106c581611f02565b9550508060060154846106d89190611f1a565b93505b5060010161065e565b50509193509193565b6001602052815f5260405f208181548110610706575f80fd5b905f5260205f20015f91509150505481565b6003546001600160a01b031633146107425760405162461bcd60e51b81526004016105a290611eaa565b6005548111156107945760405162461bcd60e51b815260206004820152601e60248201527f4c696e65467574757265733a20696e73756666696369656e742066656573000060448201526064016105a2565b8060055f8282546107a59190611f41565b90915550506003546040515f916001600160a01b03169083908381818185875af1925050503d805f81146107f4576040519150601f19603f3d011682016040523d82523d5f602084013e6107f9565b606091505b505090508061084a5760405162461bcd60e51b815260206004820152601e60248201527f4c696e65467574757265733a207769746864726177616c206661696c6564000060448201526064016105a2565b600354604080518481524260208201526001600160a01b03909216917fdeb5099d7943aa2b4c1142e5d53d2f7636aa8f7bd130ec79816f151572bcdf45910160405180910390a25050565b6003546001600160a01b031633146108bf5760405162461bcd60e51b81526004016105a290611eaa565b6007805460ff191660011790556040517fab35696f06e428ebc5ceba8cd17f8fed287baf43440206d1943af1ee53e6d267905f90a1565b5f60208190529081526040902080546001820154600283015460038401546004850180546001600160a01b0390951695939461ffff90931693919261093a90611f54565b80601f016020809104026020016040519081016040528092919081815260200182805461096690611f54565b80156109b15780601f10610988576101008083540402835291602001916109b1565b820191905f5260205f20905b81548152906001019060200180831161099457829003601f168201915b5050505060058301546006840154600785018054949560ff90931694919350906109da90611f54565b80601f0160208091040260200160405190810160405280929190818152602001828054610a0690611f54565b8015610a515780601f10610a2857610100808354040283529160200191610a51565b820191905f5260205f20905b815481529060010190602001808311610a3457829003601f168201915b5050505050908060080154905089565b6003546001600160a01b03163314610a8b5760405162461bcd60e51b81526004016105a290611eaa565b6103e8811115610add5760405162461bcd60e51b815260206004820152601960248201527f4c696e65467574757265733a2066656520746f6f20686967680000000000000060448201526064016105a2565b600680549082905560408051828152602081018490527fb27c12a91635e11c22bffa7bd8e0a8735da52b94aaefd7f249776c7590ba7894910160405180910390a15050565b6007545f9060ff1615610b775760405162461bcd60e51b815260206004820152601f60248201527f4c696e65467574757265733a20636f6e7472616374206973207061757365640060448201526064016105a2565b678ac7230489e80000341015610bd95760405162461bcd60e51b815260206004820152602160248201527f4c696e65467574757265733a20616d6f756e742062656c6f77206d696e696d756044820152606d60f81b60648201526084016105a2565b60018361ffff1610158015610bf457506109c461ffff841611155b610c405760405162461bcd60e51b815260206004820152601d60248201527f4c696e65467574757265733a20696e76616c6964206c6576657261676500000060448201526064016105a2565b5f825111610c605760405162461bcd60e51b81526004016105a290611f8c565b50604080516101208101825233815234602080830191825261ffff868116848601908152426060860190815260808601888152600160a088018190525f60c0890181905289518088018b5281815260e08a015261010089018190526002805480835297829052999020885181546001600160a01b0319166001600160a01b039091161781559651908701559151968501805461ffff191697909316969096179091559351600383015592518291906004820190610d1d908261200d565b5060a082015160058201805460ff191691151591909117905560c0820151600682015560e08201516007820190610d54908261200d565b506101009190910151600890910155335f90815260016020818152604083208054928301815583528220018390556002805491610d9083611f02565b9190505550336001600160a01b0316827fb8fa5dd37e624c6e4cd7753e65bd8b577c15af11e05040ae6bfdb645958c56cd34874288604051610dd594939291906120c8565b60405180910390a3505b92915050565b6003546001600160a01b03163314610e0f5760405162461bcd60e51b81526004016105a290611eaa565b6001600160a01b038116610e755760405162461bcd60e51b815260206004820152602760248201527f4c696e65467574757265733a206e657720736572766572206973207a65726f206044820152666164647265737360c81b60648201526084016105a2565b600480546001600160a01b038381166001600160a01b0319831681179093556040519116919082907ffb23c8edbee010b67ad49847eeb17d919a910d8a8cd91853911119bdeedd07d5905f90a35050565b6004546001600160a01b03163314610f325760405162461bcd60e51b815260206004820152602960248201527f4c696e65467574757265733a2063616c6c6572206973206e6f7420746865205060448201526837261039b2b93b32b960b91b60648201526084016105a2565b6002548310610f535760405162461bcd60e51b81526004016105a2906120fa565b5f838152602081905260409020600581015460ff16610fc05760405162461bcd60e51b8152602060048201526024808201527f4c696e65467574757265733a20706f736974696f6e20616c726561647920636c6044820152631bdcd95960e21b60648201526084016105a2565b603c8160030154610fd19190611e97565b42101561102f5760405162461bcd60e51b815260206004820152602660248201527f4c696e65467574757265733a20706f736974696f6e206e6f742079657420636c6044820152656f7361626c6560d01b60648201526084016105a2565b5f82511161104f5760405162461bcd60e51b81526004016105a290611f8c565b6006810183905560078101611064838261200d565b5060058101805460ff191690554260088201555f808413156110b45761271060065485611091919061213e565b61109b9190612169565b90508060055f8282546110ae9190611e97565b90915550505b5f818584600101546110c69190611f1a565b6110d0919061217c565b90505f808213156111815750825460405182915f916001600160a01b039091169083908381818185875af1925050503d805f8114611129576040519150601f19603f3d011682016040523d82523d5f602084013e61112e565b606091505b505090508061117f5760405162461bcd60e51b815260206004820152601c60248201527f4c696e65467574757265733a207472616e73666572206661696c65640000000060448201526064016105a2565b505b83546040516001600160a01b039091169088907fb32babc72f92ebd0ce935f9aa9b5947b0381b947b2dbbb4e61009af9913fae5e906111c7908a9086908b9042906121a2565b60405180910390a350505050505050565b60075460609060ff161561122e5760405162461bcd60e51b815260206004820152601f60248201527f4c696e65467574757265733a20636f6e7472616374206973207061757365640060448201526064016105a2565b815160018110801590611242575060058111155b61129a5760405162461bcd60e51b815260206004820152602360248201527f4c696e65467574757265733a20696e76616c696420706f736974696f6e20636f6044820152621d5b9d60ea1b60648201526084016105a2565b60018461ffff16101580156112b557506109c461ffff851611155b6113015760405162461bcd60e51b815260206004820152601d60248201527f4c696e65467574757265733a20696e76616c6964206c6576657261676500000060448201526064016105a2565b61131381678ac7230489e8000061213e565b3410156113725760405162461bcd60e51b815260206004820152602760248201527f4c696e65467574757265733a20746f74616c20616d6f756e742062656c6f77206044820152666d696e696d756d60c81b60648201526084016105a2565b5f61137d8234612169565b9050678ac7230489e800008110156113ee5760405162461bcd60e51b815260206004820152602e60248201527f4c696e65467574757265733a20616d6f756e742070657220706f736974696f6e60448201526d2062656c6f77206d696e696d756d60901b60648201526084016105a2565b5f6113f983346121d1565b905080156114a4576040515f90339083908381818185875af1925050503d805f8114611440576040519150601f19603f3d011682016040523d82523d5f602084013e611445565b606091505b50509050806114a25760405162461bcd60e51b8152602060048201526024808201527f4c696e65467574757265733a2072656d61696e64657220726566756e642066616044820152631a5b195960e21b60648201526084016105a2565b505b8267ffffffffffffffff8111156114bd576114bd611ba7565b6040519080825280602002602001820160405280156114e6578160200160208202803683370190505b5093505f5b8381101561173d575f86828151811061150657611506611eee565b6020026020010151511161152c5760405162461bcd60e51b81526004016105a290611f8c565b5f611538603c8361213e565b6115429042611e97565b90505f604051806101200160405280336001600160a01b031681526020018681526020018a61ffff16815260200183815260200189858151811061158857611588611eee565b602090810291909101810151825260018282018190525f60408085018290528051808501825282815260608087019190915260809586018390526002805480855284875293839020885181546001600160a01b0319166001600160a01b03909116178155958801519486019490945590860151928401805461ffff191661ffff909416939093179092559084015160038301559183015192935090918391906004820190611636908261200d565b5060a082015160058201805460ff191691151591909117905560c0820151600682015560e0820151600782019061166d908261200d565b506101009190910151600890910155335f908152600160208181526040832080549283018155835290912001819055875181908990869081106116b2576116b2611eee565b602090810291909101015260028054905f6116cc83611f02565b9190505550336001600160a01b0316817fb8fa5dd37e624c6e4cd7753e65bd8b577c15af11e05040ae6bfdb645958c56cd888d878e8a8151811061171257611712611eee565b602002602001015160405161172a94939291906120c8565b60405180910390a35050506001016114eb565b5050505092915050565b6003546001600160a01b031633146117715760405162461bcd60e51b81526004016105a290611eaa565b60035460405147915f916001600160a01b039091169083908381818185875af1925050503d805f81146117bf576040519150601f19603f3d011682016040523d82523d5f602084013e6117c4565b606091505b50509050806118265760405162461bcd60e51b815260206004820152602860248201527f4c696e65467574757265733a20656d657267656e6379207769746864726177616044820152671b0819985a5b195960c21b60648201526084016105a2565b5050565b6118816040518061012001604052805f6001600160a01b031681526020015f81526020015f61ffff1681526020015f8152602001606081526020015f151581526020015f8152602001606081526020015f81525090565b60025482106118a25760405162461bcd60e51b81526004016105a2906120fa565b5f828152602081815260409182902082516101208101845281546001600160a01b03168152600182015492810192909252600281015461ffff16928201929092526003820154606082015260048201805491929160808401919061190590611f54565b80601f016020809104026020016040519081016040528092919081815260200182805461193190611f54565b801561197c5780601f106119535761010080835404028352916020019161197c565b820191905f5260205f20905b81548152906001019060200180831161195f57829003601f168201915b5050509183525050600582015460ff1615156020820152600682015460408201526007820180546060909201916119b290611f54565b80601f01602080910402602001604051908101604052809291908181526020018280546119de90611f54565b8015611a295780601f10611a0057610100808354040283529160200191611a29565b820191905f5260205f20905b815481529060010190602001808311611a0c57829003601f168201915b505050505081526020016008820154815250509050919050565b5f60208284031215611a53575f5ffd5b5035919050565b80356001600160a01b0381168114611a70575f5ffd5b919050565b5f60208284031215611a85575f5ffd5b61050882611a5a565b602080825282518282018190525f918401906040840190835b81811015611ac5578351835260209384019390920191600101611aa7565b509095945050505050565b5f5f60408385031215611ae1575f5ffd5b611aea83611a5a565b946020939093013593505050565b5f81518084528060208401602086015e5f602082860101526020601f19601f83011685010191505092915050565b60018060a01b038a16815288602082015261ffff8816604082015286606082015261012060808201525f611b5e610120830188611af8565b86151560a08401528560c084015282810360e0840152611b7e8186611af8565b915050826101008301529a9950505050505050505050565b803561ffff81168114611a70575f5ffd5b634e487b7160e01b5f52604160045260245ffd5b604051601f8201601f1916810167ffffffffffffffff81118282101715611be457611be4611ba7565b604052919050565b5f82601f830112611bfb575f5ffd5b813567ffffffffffffffff811115611c1557611c15611ba7565b611c28601f8201601f1916602001611bbb565b818152846020838601011115611c3c575f5ffd5b816020850160208301375f918101602001919091529392505050565b5f5f60408385031215611c69575f5ffd5b611c7283611b96565b9150602083013567ffffffffffffffff811115611c8d575f5ffd5b611c9985828601611bec565b9150509250929050565b5f5f5f60608486031215611cb5575f5ffd5b8335925060208401359150604084013567ffffffffffffffff811115611cd9575f5ffd5b611ce586828701611bec565b9150509250925092565b5f5f60408385031215611d00575f5ffd5b611d0983611b96565b9150602083013567ffffffffffffffff811115611d24575f5ffd5b8301601f81018513611d34575f5ffd5b803567ffffffffffffffff811115611d4e57611d4e611ba7565b8060051b611d5e60208201611bbb565b91825260208184018101929081019088841115611d79575f5ffd5b6020850192505b83831015611dbf57823567ffffffffffffffff811115611d9e575f5ffd5b611dad8a602083890101611bec565b83525060209283019290910190611d80565b80955050505050509250929050565b60208152611de86020820183516001600160a01b03169052565b602082015160408201525f6040830151611e08606084018261ffff169052565b5060608301516080830152608083015161012060a0840152611e2e610140840182611af8565b905060a0840151611e4360c085018215159052565b5060c084015160e084015260e0840151601f1984830301610100850152611e6a8282611af8565b9150506101008401516101208401528091505092915050565b634e487b7160e01b5f52601160045260245ffd5b80820180821115610ddf57610ddf611e83565b60208082526024908201527f4c696e65467574757265733a2063616c6c6572206973206e6f7420746865206f6040820152633bb732b960e11b606082015260800190565b634e487b7160e01b5f52603260045260245ffd5b5f60018201611f1357611f13611e83565b5060010190565b8082018281125f831280158216821582161715611f3957611f39611e83565b505092915050565b81810381811115610ddf57610ddf611e83565b600181811c90821680611f6857607f821691505b602082108103611f8657634e487b7160e01b5f52602260045260245ffd5b50919050565b6020808252818101527f4c696e65467574757265733a20656d70747920636f6d6d69746d656e74204944604082015260600190565b601f82111561200857805f5260205f20601f840160051c81016020851015611fe65750805b601f840160051c820191505b81811015612005575f8155600101611ff2565b50505b505050565b815167ffffffffffffffff81111561202757612027611ba7565b61203b816120358454611f54565b84611fc1565b6020601f82116001811461206d575f83156120565750848201515b5f19600385901b1c1916600184901b178455612005565b5f84815260208120601f198516915b8281101561209c578785015182556020948501946001909201910161207c565b50848210156120b957868401515f19600387901b60f8161c191681555b50505050600190811b01905550565b84815261ffff84166020820152826040820152608060608201525f6120f06080830184611af8565b9695505050505050565b60208082526024908201527f4c696e65467574757265733a20706f736974696f6e20646f6573206e6f7420656040820152631e1a5cdd60e21b606082015260800190565b8082028115828204841417610ddf57610ddf611e83565b634e487b7160e01b5f52601260045260245ffd5b5f8261217757612177612155565b500490565b8181035f83128015838313168383128216171561219b5761219b611e83565b5092915050565b848152836020820152608060408201525f6121c06080830185611af8565b905082606083015295945050505050565b5f826121df576121df612155565b50069056fea2646970667358221220556d27b76f1dc9c32179e2d431c2ec3c956bed727f584dd20c57858c07fe9fe664736f6c634300081c0033",
  "linkReferences": {},
  "deployedLinkReferences": {},
  "immutableReferences": {},
  "inputSourceName": "project/contracts/LineFutures.sol",
  "buildInfoId": "solc-0_8_28-ccc27012097b352f9dc99b0c809df40537694e8d"
}